{
  "contractName": "SolnSquareVerifier",
  "abi": [
    {
      "inputs": [
        {
          "internalType": "address",
          "name": "verifierAddress",
          "type": "address"
        }
      ],
      "payable": false,
      "stateMutability": "nonpayable",
      "type": "constructor"
    },
    {
      "anonymous": false,
      "inputs": [
        {
          "indexed": true,
          "internalType": "address",
          "name": "owner",
          "type": "address"
        },
        {
          "indexed": true,
          "internalType": "address",
          "name": "approved",
          "type": "address"
        },
        {
          "indexed": true,
          "internalType": "uint256",
          "name": "tokenId",
          "type": "uint256"
        }
      ],
      "name": "Approval",
      "type": "event"
    },
    {
      "anonymous": false,
      "inputs": [
        {
          "indexed": true,
          "internalType": "address",
          "name": "owner",
          "type": "address"
        },
        {
          "indexed": true,
          "internalType": "address",
          "name": "operator",
          "type": "address"
        },
        {
          "indexed": false,
          "internalType": "bool",
          "name": "approved",
          "type": "bool"
        }
      ],
      "name": "ApprovalForAll",
      "type": "event"
    },
    {
      "anonymous": false,
      "inputs": [
        {
          "indexed": true,
          "internalType": "address",
          "name": "owner",
          "type": "address"
        },
        {
          "indexed": true,
          "internalType": "string",
          "name": "uri",
          "type": "string"
        }
      ],
      "name": "NewTokenMinted",
      "type": "event"
    },
    {
      "anonymous": false,
      "inputs": [
        {
          "indexed": false,
          "internalType": "address",
          "name": "owner",
          "type": "address"
        }
      ],
      "name": "OwnershipTransfered",
      "type": "event"
    },
    {
      "anonymous": false,
      "inputs": [
        {
          "indexed": false,
          "internalType": "address",
          "name": "_address",
          "type": "address"
        }
      ],
      "name": "Paused",
      "type": "event"
    },
    {
      "anonymous": false,
      "inputs": [
        {
          "indexed": false,
          "internalType": "uint8",
          "name": "_index",
          "type": "uint8"
        },
        {
          "indexed": false,
          "internalType": "address",
          "name": "_address",
          "type": "address"
        }
      ],
      "name": "SolutionAdded",
      "type": "event"
    },
    {
      "anonymous": false,
      "inputs": [
        {
          "indexed": true,
          "internalType": "address",
          "name": "from",
          "type": "address"
        },
        {
          "indexed": true,
          "internalType": "address",
          "name": "to",
          "type": "address"
        },
        {
          "indexed": true,
          "internalType": "uint256",
          "name": "tokenId",
          "type": "uint256"
        }
      ],
      "name": "Transfer",
      "type": "event"
    },
    {
      "anonymous": false,
      "inputs": [
        {
          "indexed": false,
          "internalType": "address",
          "name": "_address",
          "type": "address"
        }
      ],
      "name": "Unpased",
      "type": "event"
    },
    {
      "constant": false,
      "inputs": [
        {
          "internalType": "bytes32",
          "name": "_myid",
          "type": "bytes32"
        },
        {
          "internalType": "string",
          "name": "_result",
          "type": "string"
        }
      ],
      "name": "__callback",
      "outputs": [],
      "payable": false,
      "stateMutability": "nonpayable",
      "type": "function"
    },
    {
      "constant": false,
      "inputs": [
        {
          "internalType": "bytes32",
          "name": "_myid",
          "type": "bytes32"
        },
        {
          "internalType": "string",
          "name": "_result",
          "type": "string"
        },
        {
          "internalType": "bytes",
          "name": "_proof",
          "type": "bytes"
        }
      ],
      "name": "__callback",
      "outputs": [],
      "payable": false,
      "stateMutability": "nonpayable",
      "type": "function"
    },
    {
      "constant": false,
      "inputs": [
        {
          "internalType": "address",
          "name": "to",
          "type": "address"
        },
        {
          "internalType": "uint256",
          "name": "tokenId",
          "type": "uint256"
        }
      ],
      "name": "approve",
      "outputs": [],
      "payable": false,
      "stateMutability": "nonpayable",
      "type": "function"
    },
    {
      "constant": true,
      "inputs": [
        {
          "internalType": "address",
          "name": "owner",
          "type": "address"
        }
      ],
      "name": "balanceOf",
      "outputs": [
        {
          "internalType": "uint256",
          "name": "",
          "type": "uint256"
        }
      ],
      "payable": false,
      "stateMutability": "view",
      "type": "function"
    },
    {
      "constant": true,
      "inputs": [
        {
          "internalType": "uint256",
          "name": "tokenId",
          "type": "uint256"
        }
      ],
      "name": "getApproved",
      "outputs": [
        {
          "internalType": "address",
          "name": "",
          "type": "address"
        }
      ],
      "payable": false,
      "stateMutability": "view",
      "type": "function"
    },
    {
      "constant": false,
      "inputs": [],
      "name": "getBaseTokenURI",
      "outputs": [
        {
          "internalType": "string",
          "name": "",
          "type": "string"
        }
      ],
      "payable": false,
      "stateMutability": "nonpayable",
      "type": "function"
    },
    {
      "constant": false,
      "inputs": [],
      "name": "getName",
      "outputs": [
        {
          "internalType": "string",
          "name": "",
          "type": "string"
        }
      ],
      "payable": false,
      "stateMutability": "nonpayable",
      "type": "function"
    },
    {
      "constant": true,
      "inputs": [],
      "name": "getOwner",
      "outputs": [
        {
          "internalType": "address",
          "name": "",
          "type": "address"
        }
      ],
      "payable": false,
      "stateMutability": "view",
      "type": "function"
    },
    {
      "constant": false,
      "inputs": [],
      "name": "getSymbol",
      "outputs": [
        {
          "internalType": "string",
          "name": "",
          "type": "string"
        }
      ],
      "payable": false,
      "stateMutability": "nonpayable",
      "type": "function"
    },
    {
      "constant": true,
      "inputs": [
        {
          "internalType": "address",
          "name": "owner",
          "type": "address"
        },
        {
          "internalType": "address",
          "name": "operator",
          "type": "address"
        }
      ],
      "name": "isApprovedForAll",
      "outputs": [
        {
          "internalType": "bool",
          "name": "",
          "type": "bool"
        }
      ],
      "payable": false,
      "stateMutability": "view",
      "type": "function"
    },
    {
      "constant": false,
      "inputs": [
        {
          "internalType": "address",
          "name": "to",
          "type": "address"
        },
        {
          "internalType": "uint256",
          "name": "tokenId",
          "type": "uint256"
        }
      ],
      "name": "mint",
      "outputs": [
        {
          "internalType": "bool",
          "name": "",
          "type": "bool"
        }
      ],
      "payable": false,
      "stateMutability": "nonpayable",
      "type": "function"
    },
    {
      "constant": true,
      "inputs": [
        {
          "internalType": "uint256",
          "name": "tokenId",
          "type": "uint256"
        }
      ],
      "name": "ownerOf",
      "outputs": [
        {
          "internalType": "address",
          "name": "",
          "type": "address"
        }
      ],
      "payable": false,
      "stateMutability": "view",
      "type": "function"
    },
    {
      "constant": false,
      "inputs": [
        {
          "internalType": "address",
          "name": "from",
          "type": "address"
        },
        {
          "internalType": "address",
          "name": "to",
          "type": "address"
        },
        {
          "internalType": "uint256",
          "name": "tokenId",
          "type": "uint256"
        }
      ],
      "name": "safeTransferFrom",
      "outputs": [],
      "payable": false,
      "stateMutability": "nonpayable",
      "type": "function"
    },
    {
      "constant": false,
      "inputs": [
        {
          "internalType": "address",
          "name": "from",
          "type": "address"
        },
        {
          "internalType": "address",
          "name": "to",
          "type": "address"
        },
        {
          "internalType": "uint256",
          "name": "tokenId",
          "type": "uint256"
        },
        {
          "internalType": "bytes",
          "name": "_data",
          "type": "bytes"
        }
      ],
      "name": "safeTransferFrom",
      "outputs": [],
      "payable": false,
      "stateMutability": "nonpayable",
      "type": "function"
    },
    {
      "constant": false,
      "inputs": [
        {
          "internalType": "address",
          "name": "to",
          "type": "address"
        },
        {
          "internalType": "bool",
          "name": "approved",
          "type": "bool"
        }
      ],
      "name": "setApprovalForAll",
      "outputs": [],
      "payable": false,
      "stateMutability": "nonpayable",
      "type": "function"
    },
    {
      "constant": false,
      "inputs": [
        {
          "internalType": "bool",
          "name": "value",
          "type": "bool"
        }
      ],
      "name": "setPaused",
      "outputs": [],
      "payable": false,
      "stateMutability": "nonpayable",
      "type": "function"
    },
    {
      "constant": true,
      "inputs": [],
      "name": "squareVerifier",
      "outputs": [
        {
          "internalType": "contract SquareVerifier",
          "name": "",
          "type": "address"
        }
      ],
      "payable": false,
      "stateMutability": "view",
      "type": "function"
    },
    {
      "constant": true,
      "inputs": [
        {
          "internalType": "bytes4",
          "name": "interfaceId",
          "type": "bytes4"
        }
      ],
      "name": "supportsInterface",
      "outputs": [
        {
          "internalType": "bool",
          "name": "",
          "type": "bool"
        }
      ],
      "payable": false,
      "stateMutability": "view",
      "type": "function"
    },
    {
      "constant": true,
      "inputs": [
        {
          "internalType": "uint256",
          "name": "index",
          "type": "uint256"
        }
      ],
      "name": "tokenByIndex",
      "outputs": [
        {
          "internalType": "uint256",
          "name": "",
          "type": "uint256"
        }
      ],
      "payable": false,
      "stateMutability": "view",
      "type": "function"
    },
    {
      "constant": true,
      "inputs": [
        {
          "internalType": "address",
          "name": "owner",
          "type": "address"
        },
        {
          "internalType": "uint256",
          "name": "index",
          "type": "uint256"
        }
      ],
      "name": "tokenOfOwnerByIndex",
      "outputs": [
        {
          "internalType": "uint256",
          "name": "",
          "type": "uint256"
        }
      ],
      "payable": false,
      "stateMutability": "view",
      "type": "function"
    },
    {
      "constant": true,
      "inputs": [
        {
          "internalType": "uint256",
          "name": "tokenId",
          "type": "uint256"
        }
      ],
      "name": "tokenURI",
      "outputs": [
        {
          "internalType": "string",
          "name": "",
          "type": "string"
        }
      ],
      "payable": false,
      "stateMutability": "view",
      "type": "function"
    },
    {
      "constant": true,
      "inputs": [],
      "name": "totalSupply",
      "outputs": [
        {
          "internalType": "uint256",
          "name": "",
          "type": "uint256"
        }
      ],
      "payable": false,
      "stateMutability": "view",
      "type": "function"
    },
    {
      "constant": false,
      "inputs": [
        {
          "internalType": "address",
          "name": "from",
          "type": "address"
        },
        {
          "internalType": "address",
          "name": "to",
          "type": "address"
        },
        {
          "internalType": "uint256",
          "name": "tokenId",
          "type": "uint256"
        }
      ],
      "name": "transferFrom",
      "outputs": [],
      "payable": false,
      "stateMutability": "nonpayable",
      "type": "function"
    },
    {
      "constant": false,
      "inputs": [
        {
          "internalType": "address",
          "name": "newOwner",
          "type": "address"
        }
      ],
      "name": "transferOwnership",
      "outputs": [],
      "payable": false,
      "stateMutability": "nonpayable",
      "type": "function"
    },
    {
      "constant": false,
      "inputs": [
        {
          "internalType": "uint8",
          "name": "_index",
          "type": "uint8"
        },
        {
          "internalType": "address",
          "name": "_address",
          "type": "address"
        }
      ],
      "name": "addSolution",
      "outputs": [],
      "payable": false,
      "stateMutability": "nonpayable",
      "type": "function"
    },
    {
      "constant": false,
      "inputs": [
        {
          "internalType": "uint8",
          "name": "_index",
          "type": "uint8"
        },
        {
          "internalType": "uint256[2]",
          "name": "a",
          "type": "uint256[2]"
        },
        {
          "internalType": "uint256[2][2]",
          "name": "b",
          "type": "uint256[2][2]"
        },
        {
          "internalType": "uint256[2]",
          "name": "c",
          "type": "uint256[2]"
        },
        {
          "internalType": "uint256[2]",
          "name": "input",
          "type": "uint256[2]"
        }
      ],
      "name": "mintNtf",
      "outputs": [
        {
          "internalType": "bool",
          "name": "result",
          "type": "bool"
        }
      ],
      "payable": false,
      "stateMutability": "nonpayable",
      "type": "function"
    }
  ],
  "bytecode": "0x60806040523480156200001157600080fd5b506040516200377b3803806200377b83398181016040526200003791908101906200041a565b6040518060400160405280600581526020017f47414242590000000000000000000000000000000000000000000000000000008152506040518060400160405280600381526020017f47425900000000000000000000000000000000000000000000000000000000008152506040518060600160405280603f81526020016200373c603f9139336000806101000a81548173ffffffffffffffffffffffffffffffffffffffff021916908373ffffffffffffffffffffffffffffffffffffffff1602179055506200010f60006200020560201b60201c565b620001276301ffc9a760e01b620002b460201b60201c565b6200013f6380ac58cd60e01b620002b460201b60201c565b6200015763780e9d6360e01b620002b460201b60201c565b82600f90805190602001906200016f92919062000354565b5081601090805190602001906200018892919062000354565b508060119080519060200190620001a192919062000354565b50620001ba635b5e139f60e01b620002b460201b60201c565b50505080601360006101000a81548173ffffffffffffffffffffffffffffffffffffffff021916908373ffffffffffffffffffffffffffffffffffffffff160217905550506200052f565b6000809054906101000a900473ffffffffffffffffffffffffffffffffffffffff1673ffffffffffffffffffffffffffffffffffffffff163373ffffffffffffffffffffffffffffffffffffffff161462000297576040517f08c379a00000000000000000000000000000000000000000000000000000000081526004016200028e90620004ae565b60405180910390fd5b80600060146101000a81548160ff02191690831515021790555050565b63ffffffff60e01b817bffffffffffffffffffffffffffffffffffffffffffffffffffffffff19161415620002e857600080fd5b6001806000837bffffffffffffffffffffffffffffffffffffffffffffffffffffffff19167bffffffffffffffffffffffffffffffffffffffffffffffffffffffff1916815260200190815260200160002060006101000a81548160ff02191690831515021790555050565b828054600181600116156101000203166002900490600052602060002090601f016020900481019282601f106200039757805160ff1916838001178555620003c8565b82800160010185558215620003c8579182015b82811115620003c7578251825591602001919060010190620003aa565b5b509050620003d79190620003db565b5090565b6200040091905b80821115620003fc576000816000905550600101620003e2565b5090565b90565b600081519050620004148162000515565b92915050565b6000602082840312156200042d57600080fd5b60006200043d8482850162000403565b91505092915050565b600062000455602e83620004d0565b91507f6f6e6c792074686520636f6e7472616374206f776e65722063616e2063616c6c60008301527f20746869732066756e6374696f6e0000000000000000000000000000000000006020830152604082019050919050565b60006020820190508181036000830152620004c98162000446565b9050919050565b600082825260208201905092915050565b6000620004ee82620004f5565b9050919050565b600073ffffffffffffffffffffffffffffffffffffffff82169050919050565b6200052081620004e1565b81146200052c57600080fd5b50565b6131fd806200053f6000396000f3fe608060405234801561001057600080fd5b506004361061018e5760003560e01c80634c1b1c93116100de578063893d20e811610097578063bdc32be011610071578063bdc32be0146104a5578063c87b56dd146104c3578063e985e9c5146104f3578063f2fde38b146105235761018e565b8063893d20e81461044f578063a22cb4651461046d578063b88d4fde146104895761018e565b80634c1b1c93146103555780634f6ccce7146103735780635a156750146103a35780636352211e146103bf57806370a08231146103ef578063716a4f6e1461041f5761018e565b806318160ddd1161014b5780632f745c59116101255780632f745c59146102bd57806338bbfa50146102ed57806340c10f191461030957806342842e0e146103395761018e565b806318160ddd1461026757806323b872dd1461028557806327dc297e146102a15761018e565b806301ffc9a714610193578063081812fc146101c3578063095ea7b3146101f3578063150704011461020f57806316c38b3c1461022d57806317d7de7c14610249575b600080fd5b6101ad60048036036101a8919081019061297d565b61053f565b6040516101ba9190612d8e565b60405180910390f35b6101dd60048036036101d891908101906129cf565b6105a7565b6040516101ea9190612d27565b60405180910390f35b61020d60048036036102089190810190612845565b6105e4565b005b61021761076c565b6040516102249190612dc4565b60405180910390f35b61024760048036036102429190810190612881565b61080e565b005b6102516108ba565b60405161025e9190612dc4565b60405180910390f35b61026f61095c565b60405161027c9190612e86565b60405180910390f35b61029f600480360361029a919081019061273f565b610969565b005b6102bb60048036036102b691908101906128aa565b61098c565b005b6102d760048036036102d29190810190612845565b6109cf565b6040516102e49190612e86565b60405180910390f35b610307600480360361030291908101906128fe565b610a42565b005b610323600480360361031e9190810190612845565b610a47565b6040516103309190612d8e565b60405180910390f35b610353600480360361034e919081019061273f565b610b52565b005b61035d610b72565b60405161036a9190612da9565b60405180910390f35b61038d600480360361038891908101906129cf565b610b98565b60405161039a9190612e86565b60405180910390f35b6103bd60048036036103b891908101906129f8565b610bcc565b005b6103d960048036036103d491908101906129cf565b610ded565b6040516103e69190612d27565b60405180910390f35b610409600480360361040491908101906126da565b610e2a565b6040516104169190612e86565b60405180910390f35b61043960048036036104349190810190612a34565b610e76565b6040516104469190612d8e565b60405180910390f35b610457610ee1565b6040516104649190612d27565b60405180910390f35b61048760048036036104829190810190612809565b610f0a565b005b6104a3600480360361049e919081019061278e565b611040565b005b6104ad611066565b6040516104ba9190612dc4565b60405180910390f35b6104dd60048036036104d891908101906129cf565b611108565b6040516104ea9190612dc4565b60405180910390f35b61050d60048036036105089190810190612703565b6111cf565b60405161051a9190612d8e565b60405180910390f35b61053d600480360361053891908101906126da565b611263565b005b600060016000837bffffffffffffffffffffffffffffffffffffffffffffffffffffffff19167bffffffffffffffffffffffffffffffffffffffffffffffffffffffff1916815260200190815260200160002060009054906101000a900460ff169050919050565b60006003600083815260200190815260200160002060009054906101000a900473ffffffffffffffffffffffffffffffffffffffff169050919050565b6002600082815260200190815260200160002060009054906101000a900473ffffffffffffffffffffffffffffffffffffffff1673ffffffffffffffffffffffffffffffffffffffff168273ffffffffffffffffffffffffffffffffffffffff16141561065057600080fd5b6002600082815260200190815260200160002060009054906101000a900473ffffffffffffffffffffffffffffffffffffffff1673ffffffffffffffffffffffffffffffffffffffff163373ffffffffffffffffffffffffffffffffffffffff16146106bb57600080fd5b816003600083815260200190815260200160002060006101000a81548173ffffffffffffffffffffffffffffffffffffffff021916908373ffffffffffffffffffffffffffffffffffffffff160217905550808273ffffffffffffffffffffffffffffffffffffffff163373ffffffffffffffffffffffffffffffffffffffff167f8c5be1e5ebec7d5bd14f71427d1e84f3dd0314c0f7b2291e5b200ac8c7c3b92560405160405180910390a45050565b606060108054600181600116156101000203166002900480601f0160208091040260200160405190810160405280929190818152602001828054600181600116156101000203166002900480156108045780601f106107d957610100808354040283529160200191610804565b820191906000526020600020905b8154815290600101906020018083116107e757829003601f168201915b5050505050905090565b6000809054906101000a900473ffffffffffffffffffffffffffffffffffffffff1673ffffffffffffffffffffffffffffffffffffffff163373ffffffffffffffffffffffffffffffffffffffff161461089d576040517f08c379a000000000000000000000000000000000000000000000000000000000815260040161089490612de6565b60405180910390fd5b80600060146101000a81548160ff02191690831515021790555050565b6060600f8054600181600116156101000203166002900480601f0160208091040260200160405190810160405280929190818152602001828054600181600116156101000203166002900480156109525780601f1061092757610100808354040283529160200191610952565b820191906000526020600020905b81548152906001019060200180831161093557829003601f168201915b5050505050905090565b6000600880549050905090565b61097333826113a6565b61097c57600080fd5b61098783838361143b565b505050565b6109cb828260006040519080825280601f01601f1916602001820160405280156109c55781602001600182028038833980820191505090505b50610a42565b5050565b60006109da83610e2a565b82106109e557600080fd5b600660008473ffffffffffffffffffffffffffffffffffffffff1673ffffffffffffffffffffffffffffffffffffffff1681526020019081526020016000208281548110610a2f57fe5b9060005260206000200154905092915050565b505050565b60008060009054906101000a900473ffffffffffffffffffffffffffffffffffffffff1673ffffffffffffffffffffffffffffffffffffffff163373ffffffffffffffffffffffffffffffffffffffff1614610ad8576040517f08c379a0000000000000000000000000000000000000000000000000000000008152600401610acf90612de6565b60405180910390fd5b610ae2838361145f565b6060610aed83611480565b905080604051610afd9190612d10565b60405180910390208473ffffffffffffffffffffffffffffffffffffffff167ee705e3614976c3d5c59c0907231ec8257134a4315ad94dd897a1751428d21260405160405180910390a3600191505092915050565b610b6d83838360405180602001604052806000815250611040565b505050565b601360009054906101000a900473ffffffffffffffffffffffffffffffffffffffff1681565b6000610ba261095c565b8210610bad57600080fd5b60088281548110610bba57fe5b90600052602060002001549050919050565b610bd4612336565b601460008460ff1660ff1681526020019081526020016000206040518060600160405290816000820160009054906101000a900460ff1660ff1660ff1681526020016000820160019054906101000a900473ffffffffffffffffffffffffffffffffffffffff1673ffffffffffffffffffffffffffffffffffffffff1673ffffffffffffffffffffffffffffffffffffffff1681526020016000820160159054906101000a900460ff161515151581525050905060011515816040015115151514610cd4576040517f08c379a0000000000000000000000000000000000000000000000000000000008152600401610ccb90612e46565b60405180910390fd5b60405180606001604052808460ff1681526020018373ffffffffffffffffffffffffffffffffffffffff16815260200160011515815250601460008560ff1660ff16815260200190815260200160002060008201518160000160006101000a81548160ff021916908360ff16021790555060208201518160000160016101000a81548173ffffffffffffffffffffffffffffffffffffffff021916908373ffffffffffffffffffffffffffffffffffffffff16021790555060408201518160000160156101000a81548160ff0219169083151502179055509050507febd7798e7e2f133e2e975e81a521241b5528769d7a37548d355e3c493a9adbcb8383604051610de0929190612ea1565b60405180910390a1505050565b60006002600083815260200190815260200160002060009054906101000a900473ffffffffffffffffffffffffffffffffffffffff169050919050565b6000600460008373ffffffffffffffffffffffffffffffffffffffff1673ffffffffffffffffffffffffffffffffffffffff168152602001908152602001600020600001549050919050565b6000610e828633610bcc565b610e8f338760ff16610a47565b90506001151581151514610ed8576040517f08c379a0000000000000000000000000000000000000000000000000000000008152600401610ecf90612e66565b60405180910390fd5b95945050505050565b60008060009054906101000a900473ffffffffffffffffffffffffffffffffffffffff16905090565b3373ffffffffffffffffffffffffffffffffffffffff168273ffffffffffffffffffffffffffffffffffffffff161415610f4357600080fd5b80600560003373ffffffffffffffffffffffffffffffffffffffff1673ffffffffffffffffffffffffffffffffffffffff16815260200190815260200160002060008473ffffffffffffffffffffffffffffffffffffffff1673ffffffffffffffffffffffffffffffffffffffff16815260200190815260200160002060006101000a81548160ff0219169083151502179055508173ffffffffffffffffffffffffffffffffffffffff163373ffffffffffffffffffffffffffffffffffffffff167f17307eab39ab6107e8899845ad3d59bd9653f200f220920489ca2b5937696c31836040516110349190612d8e565b60405180910390a35050565b61104b848484610969565b61105784848484611575565b61106057600080fd5b50505050565b606060118054600181600116156101000203166002900480601f0160208091040260200160405190810160405280929190818152602001828054600181600116156101000203166002900480156110fe5780601f106110d3576101008083540402835291602001916110fe565b820191906000526020600020905b8154815290600101906020018083116110e157829003601f168201915b5050505050905090565b60606111138261168c565b61111c57600080fd5b601260008381526020019081526020016000208054600181600116156101000203166002900480601f0160208091040260200160405190810160405280929190818152602001828054600181600116156101000203166002900480156111c35780601f10611198576101008083540402835291602001916111c3565b820191906000526020600020905b8154815290600101906020018083116111a657829003601f168201915b50505050509050919050565b6000600560008473ffffffffffffffffffffffffffffffffffffffff1673ffffffffffffffffffffffffffffffffffffffff16815260200190815260200160002060008373ffffffffffffffffffffffffffffffffffffffff1673ffffffffffffffffffffffffffffffffffffffff16815260200190815260200160002060009054906101000a900460ff16905092915050565b6000809054906101000a900473ffffffffffffffffffffffffffffffffffffffff1673ffffffffffffffffffffffffffffffffffffffff163373ffffffffffffffffffffffffffffffffffffffff16146112f2576040517f08c379a00000000000000000000000000000000000000000000000000000000081526004016112e990612de6565b60405180910390fd5b600073ffffffffffffffffffffffffffffffffffffffff168173ffffffffffffffffffffffffffffffffffffffff16141561132c57600080fd5b806000806101000a81548173ffffffffffffffffffffffffffffffffffffffff021916908373ffffffffffffffffffffffffffffffffffffffff1602179055507f9736aeb40a8f30a5c076a9897428fdf7ec0e909c96dce63533664c9b5c835da68160405161139b9190612d27565b60405180910390a150565b6000806113b283610ded565b90508073ffffffffffffffffffffffffffffffffffffffff168473ffffffffffffffffffffffffffffffffffffffff16148061142157508373ffffffffffffffffffffffffffffffffffffffff16611409846105a7565b73ffffffffffffffffffffffffffffffffffffffff16145b80611432575061143181856111cf565b5b91505092915050565b6114468383836116fe565b61145083826119c7565b61145a8282611b65565b505050565b6114698282611c2c565b6114738282611b65565b61147c81611dc6565b5050565b606061148b8261168c565b61149457600080fd5b606061154260118054600181600116156101000203166002900480601f01602080910402602001604051908101604052809291908181526020018280546001816001161561010002031660029004801561152f5780601f106115045761010080835404028352916020019161152f565b820191906000526020600020905b81548152906001019060200180831161151257829003601f168201915b505050505061153d85611e12565b611f3f565b90508060126000858152602001908152602001600020908051906020019061156b929190612372565b5080915050919050565b60006115968473ffffffffffffffffffffffffffffffffffffffff16611f83565b6115a35760019050611684565b60008473ffffffffffffffffffffffffffffffffffffffff1663150b7a02338887876040518563ffffffff1660e01b81526004016115e49493929190612d42565b602060405180830381600087803b1580156115fe57600080fd5b505af1158015611612573d6000803e3d6000fd5b505050506040513d601f19601f8201168201806040525061163691908101906129a6565b905063150b7a0260e01b7bffffffffffffffffffffffffffffffffffffffffffffffffffffffff1916817bffffffffffffffffffffffffffffffffffffffffffffffffffffffff1916149150505b949350505050565b6000806002600084815260200190815260200160002060009054906101000a900473ffffffffffffffffffffffffffffffffffffffff169050600073ffffffffffffffffffffffffffffffffffffffff168173ffffffffffffffffffffffffffffffffffffffff161415915050919050565b8273ffffffffffffffffffffffffffffffffffffffff166002600083815260200190815260200160002060009054906101000a900473ffffffffffffffffffffffffffffffffffffffff1673ffffffffffffffffffffffffffffffffffffffff161461176957600080fd5b60011515600560008573ffffffffffffffffffffffffffffffffffffffff1673ffffffffffffffffffffffffffffffffffffffff16815260200190815260200160002060008473ffffffffffffffffffffffffffffffffffffffff1673ffffffffffffffffffffffffffffffffffffffff16815260200190815260200160002060009054906101000a900460ff16151514611839576040517f08c379a000000000000000000000000000000000000000000000000000000000815260040161183090612e06565b60405180910390fd5b6000600560008573ffffffffffffffffffffffffffffffffffffffff1673ffffffffffffffffffffffffffffffffffffffff16815260200190815260200160002060008473ffffffffffffffffffffffffffffffffffffffff1673ffffffffffffffffffffffffffffffffffffffff16815260200190815260200160002060006101000a81548160ff021916908315150217905550611915600460008573ffffffffffffffffffffffffffffffffffffffff1673ffffffffffffffffffffffffffffffffffffffff168152602001908152602001600020611f96565b816002600083815260200190815260200160002060006101000a81548173ffffffffffffffffffffffffffffffffffffffff021916908373ffffffffffffffffffffffffffffffffffffffff160217905550808273ffffffffffffffffffffffffffffffffffffffff168473ffffffffffffffffffffffffffffffffffffffff167fddf252ad1be2c89b69c2b068fc378daa952ba7f163c4a11628f55a4df523b3ef60405160405180910390a4505050565b6000611a1f6001600660008673ffffffffffffffffffffffffffffffffffffffff1673ffffffffffffffffffffffffffffffffffffffff16815260200190815260200160002080549050611fb990919063ffffffff16565b9050600060076000848152602001908152602001600020549050818114611b0c576000600660008673ffffffffffffffffffffffffffffffffffffffff1673ffffffffffffffffffffffffffffffffffffffff1681526020019081526020016000208381548110611a8c57fe5b9060005260206000200154905080600660008773ffffffffffffffffffffffffffffffffffffffff1673ffffffffffffffffffffffffffffffffffffffff1681526020019081526020016000208381548110611ae457fe5b9060005260206000200181905550816007600083815260200190815260200160002081905550505b600660008573ffffffffffffffffffffffffffffffffffffffff1673ffffffffffffffffffffffffffffffffffffffff168152602001908152602001600020805480919060019003611b5e91906123f2565b5050505050565b600660008373ffffffffffffffffffffffffffffffffffffffff1673ffffffffffffffffffffffffffffffffffffffff168152602001908152602001600020805490506007600083815260200190815260200160002081905550600660008373ffffffffffffffffffffffffffffffffffffffff1673ffffffffffffffffffffffffffffffffffffffff1681526020019081526020016000208190806001815401808255809150509060018203906000526020600020016000909192909190915055505050565b8173ffffffffffffffffffffffffffffffffffffffff166002600083815260200190815260200160002060009054906101000a900473ffffffffffffffffffffffffffffffffffffffff1673ffffffffffffffffffffffffffffffffffffffff161415611cce576040517f08c379a0000000000000000000000000000000000000000000000000000000008152600401611cc590612e26565b60405180910390fd5b816002600083815260200190815260200160002060006101000a81548173ffffffffffffffffffffffffffffffffffffffff021916908373ffffffffffffffffffffffffffffffffffffffff160217905550611d67600460008473ffffffffffffffffffffffffffffffffffffffff1673ffffffffffffffffffffffffffffffffffffffff168152602001908152602001600020612003565b808273ffffffffffffffffffffffffffffffffffffffff163373ffffffffffffffffffffffffffffffffffffffff167fddf252ad1be2c89b69c2b068fc378daa952ba7f163c4a11628f55a4df523b3ef60405160405180910390a45050565b6008805490506009600083815260200190815260200160002081905550600881908060018154018082558091505090600182039060005260206000200160009091929091909150555050565b60606000821415611e5a576040518060400160405280600181526020017f30000000000000000000000000000000000000000000000000000000000000008152509050611f3a565b600082905060005b60008214611e84578080600101915050600a8281611e7c57fe5b049150611e62565b6060816040519080825280601f01601f191660200182016040528015611eb95781602001600182028038833980820191505090505b50905060006001830390505b60008614611f3257600a8681611ed757fe5b0660300160f81b82828060019003935081518110611ef157fe5b60200101907effffffffffffffffffffffffffffffffffffffffffffffffffffffffffffff1916908160001a905350600a8681611f2a57fe5b049550611ec5565b819450505050505b919050565b6060611f7b8383604051806020016040528060008152506040518060200160405280600081525060405180602001604052806000815250612019565b905092915050565b600080823b905060008111915050919050565b611fae60018260000154611fb990919063ffffffff16565b816000018190555050565b6000611ffb83836040518060400160405280601e81526020017f536166654d6174683a207375627472616374696f6e206f766572666c6f7700008152506122db565b905092915050565b6001816000016000828254019250508190555050565b6060808690506060869050606086905060608690506060869050606081518351855187518951010101016040519080825280601f01601f1916602001820160405280156120755781602001600182028038833980820191505090505b509050606081905060008090506000809050600090505b88518110156120fa578881815181106120a157fe5b602001015160f81c60f81b8383806001019450815181106120be57fe5b60200101907effffffffffffffffffffffffffffffffffffffffffffffffffffffffffffff1916908160001a905350808060010191505061208c565b600090505b875181101561216d5787818151811061211457fe5b602001015160f81c60f81b83838060010194508151811061213157fe5b60200101907effffffffffffffffffffffffffffffffffffffffffffffffffffffffffffff1916908160001a90535080806001019150506120ff565b600090505b86518110156121e05786818151811061218757fe5b602001015160f81c60f81b8383806001019450815181106121a457fe5b60200101907effffffffffffffffffffffffffffffffffffffffffffffffffffffffffffff1916908160001a9053508080600101915050612172565b600090505b8551811015612253578581815181106121fa57fe5b602001015160f81c60f81b83838060010194508151811061221757fe5b60200101907effffffffffffffffffffffffffffffffffffffffffffffffffffffffffffff1916908160001a90535080806001019150506121e5565b600090505b84518110156122c65784818151811061226d57fe5b602001015160f81c60f81b83838060010194508151811061228a57fe5b60200101907effffffffffffffffffffffffffffffffffffffffffffffffffffffffffffff1916908160001a9053508080600101915050612258565b82995050505050505050505095945050505050565b6000838311158290612323576040517f08c379a000000000000000000000000000000000000000000000000000000000815260040161231a9190612dc4565b60405180910390fd5b5060008385039050809150509392505050565b6040518060600160405280600060ff168152602001600073ffffffffffffffffffffffffffffffffffffffff1681526020016000151581525090565b828054600181600116156101000203166002900490600052602060002090601f016020900481019282601f106123b357805160ff19168380011785556123e1565b828001600101855582156123e1579182015b828111156123e05782518255916020019190600101906123c5565b5b5090506123ee919061241e565b5090565b81548183558181111561241957818360005260206000209182019101612418919061241e565b5b505050565b61244091905b8082111561243c576000816000905550600101612424565b5090565b90565b60008135905061245281613130565b92915050565b600082601f83011261246957600080fd5b600261247c61247782612ef7565b612eca565b9150818385604084028201111561249257600080fd5b60005b838110156124c257816124a888826124cc565b845260208401935060408301925050600181019050612495565b5050505092915050565b600082601f8301126124dd57600080fd5b60026124f06124eb82612f19565b612eca565b9150818385602084028201111561250657600080fd5b60005b83811015612536578161251c88826126b0565b845260208401935060208301925050600181019050612509565b5050505092915050565b600082601f83011261255157600080fd5b600261256461255f82612f3b565b612eca565b9150818385602084028201111561257a57600080fd5b60005b838110156125aa578161259088826126b0565b84526020840193506020830192505060018101905061257d565b5050505092915050565b6000813590506125c381613147565b92915050565b6000813590506125d88161315e565b92915050565b6000813590506125ed81613175565b92915050565b60008151905061260281613175565b92915050565b600082601f83011261261957600080fd5b813561262c61262782612f5d565b612eca565b9150808252602083016020830185838301111561264857600080fd5b6126538382846130dd565b50505092915050565b600082601f83011261266d57600080fd5b813561268061267b82612f89565b612eca565b9150808252602083016020830185838301111561269c57600080fd5b6126a78382846130dd565b50505092915050565b6000813590506126bf8161318c565b92915050565b6000813590506126d4816131a3565b92915050565b6000602082840312156126ec57600080fd5b60006126fa84828501612443565b91505092915050565b6000806040838503121561271657600080fd5b600061272485828601612443565b925050602061273585828601612443565b9150509250929050565b60008060006060848603121561275457600080fd5b600061276286828701612443565b935050602061277386828701612443565b9250506040612784868287016126b0565b9150509250925092565b600080600080608085870312156127a457600080fd5b60006127b287828801612443565b94505060206127c387828801612443565b93505060406127d4878288016126b0565b925050606085013567ffffffffffffffff8111156127f157600080fd5b6127fd87828801612608565b91505092959194509250565b6000806040838503121561281c57600080fd5b600061282a85828601612443565b925050602061283b858286016125b4565b9150509250929050565b6000806040838503121561285857600080fd5b600061286685828601612443565b9250506020612877858286016126b0565b9150509250929050565b60006020828403121561289357600080fd5b60006128a1848285016125b4565b91505092915050565b600080604083850312156128bd57600080fd5b60006128cb858286016125c9565b925050602083013567ffffffffffffffff8111156128e857600080fd5b6128f48582860161265c565b9150509250929050565b60008060006060848603121561291357600080fd5b6000612921868287016125c9565b935050602084013567ffffffffffffffff81111561293e57600080fd5b61294a8682870161265c565b925050604084013567ffffffffffffffff81111561296757600080fd5b61297386828701612608565b9150509250925092565b60006020828403121561298f57600080fd5b600061299d848285016125de565b91505092915050565b6000602082840312156129b857600080fd5b60006129c6848285016125f3565b91505092915050565b6000602082840312156129e157600080fd5b60006129ef848285016126b0565b91505092915050565b60008060408385031215612a0b57600080fd5b6000612a19858286016126c5565b9250506020612a2a85828601612443565b9150509250929050565b60008060008060006101608688031215612a4d57600080fd5b6000612a5b888289016126c5565b9550506020612a6c88828901612540565b9450506060612a7d88828901612458565b93505060e0612a8e88828901612540565b925050610120612aa088828901612540565b9150509295509295909350565b612ab681613083565b82525050565b612ac581612ff8565b82525050565b612ad48161300a565b82525050565b6000612ae582612fb5565b612aef8185612fcb565b9350612aff8185602086016130ec565b612b088161311f565b840191505092915050565b612b1c81613095565b82525050565b6000612b2d82612fc0565b612b378185612fdc565b9350612b478185602086016130ec565b612b508161311f565b840191505092915050565b6000612b6682612fc0565b612b708185612fed565b9350612b808185602086016130ec565b80840191505092915050565b6000612b99602e83612fdc565b91507f6f6e6c792074686520636f6e7472616374206f776e65722063616e2063616c6c60008301527f20746869732066756e6374696f6e0000000000000000000000000000000000006020830152604082019050919050565b6000612bff601283612fdc565b91507f4e6f7420612076616c69642061647265737300000000000000000000000000006000830152602082019050919050565b6000612c3f601e83612fdc565b91507f546f6b656e20666f72206f776e657220616c72656164792065786973747300006000830152602082019050919050565b6000612c7f601783612fdc565b91507f536f6c7574696f6e20616c7265616479206578697374730000000000000000006000830152602082019050919050565b6000612cbf601383612fdc565b91507f4572726f72206d696e74696e6720746f6b656e000000000000000000000000006000830152602082019050919050565b612cfb8161306c565b82525050565b612d0a81613076565b82525050565b6000612d1c8284612b5b565b915081905092915050565b6000602082019050612d3c6000830184612abc565b92915050565b6000608082019050612d576000830187612aad565b612d646020830186612abc565b612d716040830185612cf2565b8181036060830152612d838184612ada565b905095945050505050565b6000602082019050612da36000830184612acb565b92915050565b6000602082019050612dbe6000830184612b13565b92915050565b60006020820190508181036000830152612dde8184612b22565b905092915050565b60006020820190508181036000830152612dff81612b8c565b9050919050565b60006020820190508181036000830152612e1f81612bf2565b9050919050565b60006020820190508181036000830152612e3f81612c32565b9050919050565b60006020820190508181036000830152612e5f81612c72565b9050919050565b60006020820190508181036000830152612e7f81612cb2565b9050919050565b6000602082019050612e9b6000830184612cf2565b92915050565b6000604082019050612eb66000830185612d01565b612ec36020830184612abc565b9392505050565b6000604051905081810181811067ffffffffffffffff82111715612eed57600080fd5b8060405250919050565b600067ffffffffffffffff821115612f0e57600080fd5b602082029050919050565b600067ffffffffffffffff821115612f3057600080fd5b602082029050919050565b600067ffffffffffffffff821115612f5257600080fd5b602082029050919050565b600067ffffffffffffffff821115612f7457600080fd5b601f19601f8301169050602081019050919050565b600067ffffffffffffffff821115612fa057600080fd5b601f19601f8301169050602081019050919050565b600081519050919050565b600081519050919050565b600082825260208201905092915050565b600082825260208201905092915050565b600081905092915050565b60006130038261304c565b9050919050565b60008115159050919050565b6000819050919050565b60007fffffffff0000000000000000000000000000000000000000000000000000000082169050919050565b600073ffffffffffffffffffffffffffffffffffffffff82169050919050565b6000819050919050565b600060ff82169050919050565b600061308e826130b9565b9050919050565b60006130a0826130a7565b9050919050565b60006130b28261304c565b9050919050565b60006130c4826130cb565b9050919050565b60006130d68261304c565b9050919050565b82818337600083830152505050565b60005b8381101561310a5780820151818401526020810190506130ef565b83811115613119576000848401525b50505050565b6000601f19601f8301169050919050565b61313981612ff8565b811461314457600080fd5b50565b6131508161300a565b811461315b57600080fd5b50565b61316781613016565b811461317257600080fd5b50565b61317e81613020565b811461318957600080fd5b50565b6131958161306c565b81146131a057600080fd5b50565b6131ac81613076565b81146131b757600080fd5b5056fea365627a7a723158204accc31081a2a56ab71cfcb2098c040b346705c76ded7e11f3b35b015ae14ecc6c6578706572696d656e74616cf564736f6c6343000510004068747470733a2f2f73332d75732d776573742d322e616d617a6f6e6177732e636f6d2f756461636974792d626c6f636b636861696e2f63617073746f6e652f",
  "source": "pragma solidity >=0.4.21 <0.6.0;\npragma experimental ABIEncoderV2;\nimport './SquareVerifier.sol';\nimport './ERC721Mintable.sol';\n// TODO define a contract call to the zokrates generated solidity contract <Verifier> or <renamedVerifier>\n// contract Verifier {\n//   constructor() {\n\n//   }\n\n//   function verifyTx(\n//     uint[2] memory a,\n//     uint[2][2] memory b,\n//     uint[2] memory c, \n//     uint[2] memory input\n//   ) public view returns (bool r) {\n//   };\n\n// }\n\n\n// TODO define another contract named SolnSquareVerifier that inherits from your ERC721Mintable class\ncontract SolnSquareVerifier is ERC721MintableComplete {\n  // TODO define a solutions struct that can hold an index & an address\n  struct Solution {\n    uint8 _index;\n    address _address;\n    bool exists;\n  }\n\n  SquareVerifier public squareVerifier;\n\n  // TODO define an array of the above struct\n  // Solution[] solutions;\n\n  // TODO define a mapping to store unique solutions submitted\n  mapping(uint8 => Solution) solutions; \n\n  // TODO Create an event to emit when a solution is added\n  event SolutionAdded(uint8 _index, address _address);\n\n  constructor(address verifierAddress) public {\n    squareVerifier = SquareVerifier(verifierAddress);\n  }\n\n  // TODO Create a function to add the solutions to the array and emit the event\n  function addSolution(uint8 _index, address _address) public {\n    Solution memory sol = solutions[_index];\n    require(!sol.exists == true, 'Solution already exists');\n    solutions[_index] = Solution(_index, _address, true);\n    emit SolutionAdded(_index, _address);\n  } \n\n  function mintNtf(\n    uint8 _index,\n    uint[2] memory a,\n    uint[2][2] memory b,\n    uint[2] memory c, uint[2] memory input\n  ) public returns(bool result) {\n      // bool valid = squareVerifier.verifyTx(a, b, c, input);\n      // require(valid == true, \"Cannot mint a new token- Verification failed\");\n      addSolution(_index, msg.sender);  \n      result = super.mint(msg.sender, _index);\n      require(result == true, 'Error minting token');\n  }\n}\n\n// TODO Create a function to mint new NFT only after the solution has been verified\n//  - make sure the solution is unique (has not been used before)\n//  - make sure you handle metadata as well as tokenSuplly\n\n  \n\n\n\n\n\n\n\n\n\n\n\n\n\n\n\n\n\n\n\n\n\n\n\n\n\n\n",
  "sourcePath": "/Users/mymac/Documents/Projects/blockchain/token/Blockchain-Capstone/eth-contracts/contracts/SolnSquareVerifier.sol",
  "compiler": {
    "name": "solc",
    "version": "0.5.16+commit.9c3226ce.Emscripten.clang"
  },
  "schemaVersion": "3.3.4",
  "updatedAt": "2021-05-16T07:42:08.072Z",
  "devdoc": {
    "methods": {
      "isApprovedForAll(address,address)": {
        "details": "Tells whether an operator is approved by a given owner",
        "params": {
          "operator": "operator address which you want to query the approval of",
          "owner": "owner address which you want to query the approval of"
        },
        "return": "bool whether the given operator is approved by the given owner"
      },
      "setApprovalForAll(address,bool)": {
        "details": "Sets or unsets the approval of a given operator An operator is allowed to transfer all tokens of the sender on their behalf",
        "params": {
          "approved": "representing the status of the approval to be set",
          "to": "operator address to set the approval"
        }
      },
      "supportsInterface(bytes4)": {
        "details": "implement supportsInterface(bytes4) using a lookup table"
      },
      "tokenByIndex(uint256)": {
        "details": "Gets the token ID at a given index of all the tokens in this contract Reverts if the index is greater or equal to the total number of tokens",
        "params": {
          "index": "uint256 representing the index to be accessed of the tokens list"
        },
        "return": "uint256 token ID at the given index of the tokens list"
      },
      "tokenOfOwnerByIndex(address,uint256)": {
        "details": "Gets the token ID at a given index of the tokens list of the requested owner",
        "params": {
          "index": "uint256 representing the index to be accessed of the requested tokens list",
          "owner": "address owning the tokens list to be accessed"
        },
        "return": "uint256 token ID at the given index of the tokens list owned by the requested address"
      },
      "totalSupply()": {
        "details": "Gets the total amount of tokens stored by the contract",
        "return": "uint256 representing the total amount of tokens"
      }
    }
  },
  "userdoc": {
    "methods": {}
  }
}