{
  "contractName": "SolnSquareVerifier",
  "abi": [
    {
      "inputs": [
        {
          "internalType": "address",
          "name": "verifierAddress",
          "type": "address"
        }
      ],
      "payable": false,
      "stateMutability": "nonpayable",
      "type": "constructor"
    },
    {
      "anonymous": false,
      "inputs": [
        {
          "indexed": true,
          "internalType": "address",
          "name": "owner",
          "type": "address"
        },
        {
          "indexed": true,
          "internalType": "address",
          "name": "approved",
          "type": "address"
        },
        {
          "indexed": true,
          "internalType": "uint256",
          "name": "tokenId",
          "type": "uint256"
        }
      ],
      "name": "Approval",
      "type": "event"
    },
    {
      "anonymous": false,
      "inputs": [
        {
          "indexed": true,
          "internalType": "address",
          "name": "owner",
          "type": "address"
        },
        {
          "indexed": true,
          "internalType": "address",
          "name": "operator",
          "type": "address"
        },
        {
          "indexed": false,
          "internalType": "bool",
          "name": "approved",
          "type": "bool"
        }
      ],
      "name": "ApprovalForAll",
      "type": "event"
    },
    {
      "anonymous": false,
      "inputs": [
        {
          "indexed": true,
          "internalType": "address",
          "name": "owner",
          "type": "address"
        },
        {
          "indexed": true,
          "internalType": "string",
          "name": "uri",
          "type": "string"
        }
      ],
      "name": "NewTokenMinted",
      "type": "event"
    },
    {
      "anonymous": false,
      "inputs": [
        {
          "indexed": true,
          "internalType": "address",
          "name": "previousOwner",
          "type": "address"
        },
        {
          "indexed": true,
          "internalType": "address",
          "name": "newOwner",
          "type": "address"
        }
      ],
      "name": "OwnershipTransferred",
      "type": "event"
    },
    {
      "anonymous": false,
      "inputs": [
        {
          "indexed": false,
          "internalType": "address",
          "name": "_address",
          "type": "address"
        }
      ],
      "name": "Paused",
      "type": "event"
    },
    {
      "anonymous": false,
      "inputs": [
        {
          "indexed": false,
          "internalType": "uint8",
          "name": "_index",
          "type": "uint8"
        },
        {
          "indexed": false,
          "internalType": "address",
          "name": "_address",
          "type": "address"
        }
      ],
      "name": "SolutionAdded",
      "type": "event"
    },
    {
      "anonymous": false,
      "inputs": [
        {
          "indexed": true,
          "internalType": "address",
          "name": "from",
          "type": "address"
        },
        {
          "indexed": true,
          "internalType": "address",
          "name": "to",
          "type": "address"
        },
        {
          "indexed": true,
          "internalType": "uint256",
          "name": "tokenId",
          "type": "uint256"
        }
      ],
      "name": "Transfer",
      "type": "event"
    },
    {
      "anonymous": false,
      "inputs": [
        {
          "indexed": false,
          "internalType": "address",
          "name": "_address",
          "type": "address"
        }
      ],
      "name": "Unpased",
      "type": "event"
    },
    {
      "constant": false,
      "inputs": [
        {
          "internalType": "bytes32",
          "name": "_myid",
          "type": "bytes32"
        },
        {
          "internalType": "string",
          "name": "_result",
          "type": "string"
        }
      ],
      "name": "__callback",
      "outputs": [],
      "payable": false,
      "stateMutability": "nonpayable",
      "type": "function"
    },
    {
      "constant": false,
      "inputs": [
        {
          "internalType": "bytes32",
          "name": "_myid",
          "type": "bytes32"
        },
        {
          "internalType": "string",
          "name": "_result",
          "type": "string"
        },
        {
          "internalType": "bytes",
          "name": "_proof",
          "type": "bytes"
        }
      ],
      "name": "__callback",
      "outputs": [],
      "payable": false,
      "stateMutability": "nonpayable",
      "type": "function"
    },
    {
      "constant": false,
      "inputs": [
        {
          "internalType": "address",
          "name": "to",
          "type": "address"
        },
        {
          "internalType": "uint256",
          "name": "tokenId",
          "type": "uint256"
        }
      ],
      "name": "approve",
      "outputs": [],
      "payable": false,
      "stateMutability": "nonpayable",
      "type": "function"
    },
    {
      "constant": true,
      "inputs": [
        {
          "internalType": "address",
          "name": "owner",
          "type": "address"
        }
      ],
      "name": "balanceOf",
      "outputs": [
        {
          "internalType": "uint256",
          "name": "",
          "type": "uint256"
        }
      ],
      "payable": false,
      "stateMutability": "view",
      "type": "function"
    },
    {
      "constant": true,
      "inputs": [
        {
          "internalType": "uint256",
          "name": "tokenId",
          "type": "uint256"
        }
      ],
      "name": "getApproved",
      "outputs": [
        {
          "internalType": "address",
          "name": "",
          "type": "address"
        }
      ],
      "payable": false,
      "stateMutability": "view",
      "type": "function"
    },
    {
      "constant": false,
      "inputs": [],
      "name": "getBaseTokenURI",
      "outputs": [
        {
          "internalType": "string",
          "name": "",
          "type": "string"
        }
      ],
      "payable": false,
      "stateMutability": "nonpayable",
      "type": "function"
    },
    {
      "constant": true,
      "inputs": [
        {
          "internalType": "address",
          "name": "owner",
          "type": "address"
        },
        {
          "internalType": "address",
          "name": "operator",
          "type": "address"
        }
      ],
      "name": "isApprovedForAll",
      "outputs": [
        {
          "internalType": "bool",
          "name": "",
          "type": "bool"
        }
      ],
      "payable": false,
      "stateMutability": "view",
      "type": "function"
    },
    {
      "constant": true,
      "inputs": [],
      "name": "isOwner",
      "outputs": [
        {
          "internalType": "bool",
          "name": "",
          "type": "bool"
        }
      ],
      "payable": false,
      "stateMutability": "view",
      "type": "function"
    },
    {
      "constant": false,
      "inputs": [
        {
          "internalType": "address",
          "name": "to",
          "type": "address"
        },
        {
          "internalType": "uint256",
          "name": "tokenId",
          "type": "uint256"
        }
      ],
      "name": "mint",
      "outputs": [
        {
          "internalType": "bool",
          "name": "",
          "type": "bool"
        }
      ],
      "payable": false,
      "stateMutability": "nonpayable",
      "type": "function"
    },
    {
      "constant": false,
      "inputs": [],
      "name": "name",
      "outputs": [
        {
          "internalType": "string",
          "name": "",
          "type": "string"
        }
      ],
      "payable": false,
      "stateMutability": "nonpayable",
      "type": "function"
    },
    {
      "constant": true,
      "inputs": [],
      "name": "owner",
      "outputs": [
        {
          "internalType": "address",
          "name": "",
          "type": "address"
        }
      ],
      "payable": false,
      "stateMutability": "view",
      "type": "function"
    },
    {
      "constant": true,
      "inputs": [
        {
          "internalType": "uint256",
          "name": "tokenId",
          "type": "uint256"
        }
      ],
      "name": "ownerOf",
      "outputs": [
        {
          "internalType": "address",
          "name": "",
          "type": "address"
        }
      ],
      "payable": false,
      "stateMutability": "view",
      "type": "function"
    },
    {
      "constant": false,
      "inputs": [],
      "name": "renounceOwnership",
      "outputs": [],
      "payable": false,
      "stateMutability": "nonpayable",
      "type": "function"
    },
    {
      "constant": false,
      "inputs": [
        {
          "internalType": "address",
          "name": "from",
          "type": "address"
        },
        {
          "internalType": "address",
          "name": "to",
          "type": "address"
        },
        {
          "internalType": "uint256",
          "name": "tokenId",
          "type": "uint256"
        }
      ],
      "name": "safeTransferFrom",
      "outputs": [],
      "payable": false,
      "stateMutability": "nonpayable",
      "type": "function"
    },
    {
      "constant": false,
      "inputs": [
        {
          "internalType": "address",
          "name": "from",
          "type": "address"
        },
        {
          "internalType": "address",
          "name": "to",
          "type": "address"
        },
        {
          "internalType": "uint256",
          "name": "tokenId",
          "type": "uint256"
        },
        {
          "internalType": "bytes",
          "name": "_data",
          "type": "bytes"
        }
      ],
      "name": "safeTransferFrom",
      "outputs": [],
      "payable": false,
      "stateMutability": "nonpayable",
      "type": "function"
    },
    {
      "constant": false,
      "inputs": [
        {
          "internalType": "address",
          "name": "to",
          "type": "address"
        },
        {
          "internalType": "bool",
          "name": "approved",
          "type": "bool"
        }
      ],
      "name": "setApprovalForAll",
      "outputs": [],
      "payable": false,
      "stateMutability": "nonpayable",
      "type": "function"
    },
    {
      "constant": false,
      "inputs": [
        {
          "internalType": "bool",
          "name": "value",
          "type": "bool"
        }
      ],
      "name": "setPaused",
      "outputs": [],
      "payable": false,
      "stateMutability": "nonpayable",
      "type": "function"
    },
    {
      "constant": true,
      "inputs": [],
      "name": "squareVerifier",
      "outputs": [
        {
          "internalType": "contract SquareVerifier",
          "name": "",
          "type": "address"
        }
      ],
      "payable": false,
      "stateMutability": "view",
      "type": "function"
    },
    {
      "constant": true,
      "inputs": [
        {
          "internalType": "bytes4",
          "name": "interfaceId",
          "type": "bytes4"
        }
      ],
      "name": "supportsInterface",
      "outputs": [
        {
          "internalType": "bool",
          "name": "",
          "type": "bool"
        }
      ],
      "payable": false,
      "stateMutability": "view",
      "type": "function"
    },
    {
      "constant": false,
      "inputs": [],
      "name": "symbol",
      "outputs": [
        {
          "internalType": "string",
          "name": "",
          "type": "string"
        }
      ],
      "payable": false,
      "stateMutability": "nonpayable",
      "type": "function"
    },
    {
      "constant": true,
      "inputs": [
        {
          "internalType": "uint256",
          "name": "index",
          "type": "uint256"
        }
      ],
      "name": "tokenByIndex",
      "outputs": [
        {
          "internalType": "uint256",
          "name": "",
          "type": "uint256"
        }
      ],
      "payable": false,
      "stateMutability": "view",
      "type": "function"
    },
    {
      "constant": true,
      "inputs": [
        {
          "internalType": "address",
          "name": "owner",
          "type": "address"
        },
        {
          "internalType": "uint256",
          "name": "index",
          "type": "uint256"
        }
      ],
      "name": "tokenOfOwnerByIndex",
      "outputs": [
        {
          "internalType": "uint256",
          "name": "",
          "type": "uint256"
        }
      ],
      "payable": false,
      "stateMutability": "view",
      "type": "function"
    },
    {
      "constant": true,
      "inputs": [
        {
          "internalType": "uint256",
          "name": "tokenId",
          "type": "uint256"
        }
      ],
      "name": "tokenURI",
      "outputs": [
        {
          "internalType": "string",
          "name": "",
          "type": "string"
        }
      ],
      "payable": false,
      "stateMutability": "view",
      "type": "function"
    },
    {
      "constant": true,
      "inputs": [],
      "name": "totalSupply",
      "outputs": [
        {
          "internalType": "uint256",
          "name": "",
          "type": "uint256"
        }
      ],
      "payable": false,
      "stateMutability": "view",
      "type": "function"
    },
    {
      "constant": false,
      "inputs": [
        {
          "internalType": "address",
          "name": "from",
          "type": "address"
        },
        {
          "internalType": "address",
          "name": "to",
          "type": "address"
        },
        {
          "internalType": "uint256",
          "name": "tokenId",
          "type": "uint256"
        }
      ],
      "name": "transferFrom",
      "outputs": [],
      "payable": false,
      "stateMutability": "nonpayable",
      "type": "function"
    },
    {
      "constant": false,
      "inputs": [
        {
          "internalType": "address",
          "name": "newOwner",
          "type": "address"
        }
      ],
      "name": "transferOwnership",
      "outputs": [],
      "payable": false,
      "stateMutability": "nonpayable",
      "type": "function"
    },
    {
      "constant": false,
      "inputs": [
        {
          "internalType": "uint8",
          "name": "_index",
          "type": "uint8"
        },
        {
          "internalType": "address",
          "name": "_address",
          "type": "address"
        }
      ],
      "name": "addSolution",
      "outputs": [],
      "payable": false,
      "stateMutability": "nonpayable",
      "type": "function"
    },
    {
      "constant": false,
      "inputs": [
        {
          "internalType": "uint8",
          "name": "_index",
          "type": "uint8"
        },
        {
          "internalType": "uint256[2]",
          "name": "a",
          "type": "uint256[2]"
        },
        {
          "internalType": "uint256[2][2]",
          "name": "b",
          "type": "uint256[2][2]"
        },
        {
          "internalType": "uint256[2]",
          "name": "c",
          "type": "uint256[2]"
        },
        {
          "internalType": "uint256[1]",
          "name": "input",
          "type": "uint256[1]"
        }
      ],
      "name": "mintNtf",
      "outputs": [
        {
          "internalType": "bool",
          "name": "result",
          "type": "bool"
        }
      ],
      "payable": false,
      "stateMutability": "nonpayable",
      "type": "function"
    }
  ],
  "bytecode": "0x60806040523480156200001157600080fd5b5060405162003f7538038062003f758339818101604052620000379190810190620004d3565b6040518060400160405280600781526020017f4758414c414445000000000000000000000000000000000000000000000000008152506040518060400160405280600381526020017f47584c00000000000000000000000000000000000000000000000000000000008152506040518060600160405280603f815260200162003f36603f9139620000cd6200029060201b60201c565b6000806101000a81548173ffffffffffffffffffffffffffffffffffffffff021916908373ffffffffffffffffffffffffffffffffffffffff1602179055506000809054906101000a900473ffffffffffffffffffffffffffffffffffffffff1673ffffffffffffffffffffffffffffffffffffffff16600073ffffffffffffffffffffffffffffffffffffffff167f8be0079c531659141344cd1fd0a4f28419497f9722a3daafe3b4186f6b6457e060405160405180910390a36200019a60006200029860201b60201c565b620001b26301ffc9a760e01b6200030760201b60201c565b620001ca6380ac58cd60e01b6200030760201b60201c565b620001e263780e9d6360e01b6200030760201b60201c565b82600f9080519060200190620001fa9291906200040d565b508160109080519060200190620002139291906200040d565b5080601190805190602001906200022c9291906200040d565b5062000245635b5e139f60e01b6200030760201b60201c565b50505080601360006101000a81548173ffffffffffffffffffffffffffffffffffffffff021916908373ffffffffffffffffffffffffffffffffffffffff16021790555050620005c2565b600033905090565b620002a8620003a760201b60201c565b620002ea576040517f08c379a0000000000000000000000000000000000000000000000000000000008152600401620002e19062000541565b60405180910390fd5b80600060146101000a81548160ff02191690831515021790555050565b63ffffffff60e01b817bffffffffffffffffffffffffffffffffffffffffffffffffffffffff191614156200033b57600080fd5b6001806000837bffffffffffffffffffffffffffffffffffffffffffffffffffffffff19167bffffffffffffffffffffffffffffffffffffffffffffffffffffffff1916815260200190815260200160002060006101000a81548160ff02191690831515021790555050565b60008060009054906101000a900473ffffffffffffffffffffffffffffffffffffffff1673ffffffffffffffffffffffffffffffffffffffff16620003f16200029060201b60201c565b73ffffffffffffffffffffffffffffffffffffffff1614905090565b828054600181600116156101000203166002900490600052602060002090601f016020900481019282601f106200045057805160ff191683800117855562000481565b8280016001018555821562000481579182015b828111156200048057825182559160200191906001019062000463565b5b50905062000490919062000494565b5090565b620004b991905b80821115620004b55760008160009055506001016200049b565b5090565b90565b600081519050620004cd81620005a8565b92915050565b600060208284031215620004e657600080fd5b6000620004f684828501620004bc565b91505092915050565b60006200050e60208362000563565b91507f4f776e61626c653a2063616c6c6572206973206e6f7420746865206f776e65726000830152602082019050919050565b600060208201905081810360008301526200055c81620004ff565b9050919050565b600082825260208201905092915050565b6000620005818262000588565b9050919050565b600073ffffffffffffffffffffffffffffffffffffffff82169050919050565b620005b38162000574565b8114620005bf57600080fd5b50565b61396480620005d26000396000f3fe608060405234801561001057600080fd5b50600436106101c45760003560e01c80635a156750116100f957806395d89b4111610097578063bdc32be011610071578063bdc32be014610503578063c87b56dd14610521578063e985e9c514610551578063f2fde38b14610581576101c4565b806395d89b41146104ad578063a22cb465146104cb578063b88d4fde146104e7576101c4565b8063715018a6116100d3578063715018a6146104375780637e9ce8d3146104415780638da5cb5b146104715780638f32d59b1461048f576101c4565b80635a156750146103bb5780636352211e146103d757806370a0823114610407576101c4565b806327dc297e1161016657806340c10f191161014057806340c10f191461032157806342842e0e146103515780634c1b1c931461036d5780634f6ccce71461038b576101c4565b806327dc297e146102b95780632f745c59146102d557806338bbfa5014610305576101c4565b8063095ea7b3116101a2578063095ea7b31461024757806316c38b3c1461026357806318160ddd1461027f57806323b872dd1461029d576101c4565b806301ffc9a7146101c957806306fdde03146101f9578063081812fc14610217575b600080fd5b6101e360048036036101de9190810190612ace565b61059d565b6040516101f0919061333f565b60405180910390f35b610201610605565b60405161020e9190613375565b60405180910390f35b610231600480360361022c9190810190612b20565b6106a7565b60405161023e9190613291565b60405180910390f35b610261600480360361025c919081019061296d565b61072c565b005b61027d600480360361027891908101906129a9565b6108e3565b005b610287610947565b6040516102949190613517565b60405180910390f35b6102b760048036036102b29190810190612867565b610954565b005b6102d360048036036102ce91908101906129fb565b610b83565b005b6102ef60048036036102ea919081019061296d565b610bc6565b6040516102fc9190613517565b60405180910390f35b61031f600480360361031a9190810190612a4f565b610c39565b005b61033b6004803603610336919081019061296d565b610c3e565b604051610348919061333f565b60405180910390f35b61036b60048036036103669190810190612867565b610d01565b005b610375610d21565b604051610382919061335a565b60405180910390f35b6103a560048036036103a09190810190612b20565b610d47565b6040516103b29190613517565b60405180910390f35b6103d560048036036103d09190810190612b49565b610d7b565b005b6103f160048036036103ec9190810190612b20565b610f9c565b6040516103fe9190613291565b60405180910390f35b610421600480360361041c9190810190612802565b610fd9565b60405161042e9190613517565b60405180910390f35b61043f611025565b005b61045b60048036036104569190810190612b85565b61112b565b604051610468919061333f565b60405180910390f35b610479611292565b6040516104869190613291565b60405180910390f35b6104976112bb565b6040516104a4919061333f565b60405180910390f35b6104b5611319565b6040516104c29190613375565b60405180910390f35b6104e560048036036104e09190810190612931565b6113bb565b005b61050160048036036104fc91908101906128b6565b6114f1565b005b61050b611517565b6040516105189190613375565b60405180910390f35b61053b60048036036105369190810190612b20565b6115b9565b6040516105489190613375565b60405180910390f35b61056b6004803603610566919081019061282b565b611680565b604051610578919061333f565b60405180910390f35b61059b60048036036105969190810190612802565b611714565b005b600060016000837bffffffffffffffffffffffffffffffffffffffffffffffffffffffff19167bffffffffffffffffffffffffffffffffffffffffffffffffffffffff1916815260200190815260200160002060009054906101000a900460ff169050919050565b6060600f8054600181600116156101000203166002900480601f01602080910402602001604051908101604052809291908181526020018280546001816001161561010002031660029004801561069d5780601f106106725761010080835404028352916020019161069d565b820191906000526020600020905b81548152906001019060200180831161068057829003601f168201915b5050505050905090565b60006106b282611767565b6106f1576040517f08c379a00000000000000000000000000000000000000000000000000000000081526004016106e8906134f7565b60405180910390fd5b6003600083815260200190815260200160002060009054906101000a900473ffffffffffffffffffffffffffffffffffffffff169050919050565b61073581610f9c565b73ffffffffffffffffffffffffffffffffffffffff168273ffffffffffffffffffffffffffffffffffffffff1614156107a3576040517f08c379a000000000000000000000000000000000000000000000000000000000815260040161079a906134b7565b60405180910390fd5b3373ffffffffffffffffffffffffffffffffffffffff166107c382610f9c565b73ffffffffffffffffffffffffffffffffffffffff1614806107f357506107f26107ec82610f9c565b33611680565b5b610832576040517f08c379a0000000000000000000000000000000000000000000000000000000008152600401610829906133d7565b60405180910390fd5b816003600083815260200190815260200160002060006101000a81548173ffffffffffffffffffffffffffffffffffffffff021916908373ffffffffffffffffffffffffffffffffffffffff160217905550808273ffffffffffffffffffffffffffffffffffffffff163373ffffffffffffffffffffffffffffffffffffffff167f8c5be1e5ebec7d5bd14f71427d1e84f3dd0314c0f7b2291e5b200ac8c7c3b92560405160405180910390a45050565b6108eb6112bb565b61092a576040517f08c379a000000000000000000000000000000000000000000000000000000000815260040161092190613437565b60405180910390fd5b80600060146101000a81548160ff02191690831515021790555050565b6000600880549050905090565b8273ffffffffffffffffffffffffffffffffffffffff1661097482610f9c565b73ffffffffffffffffffffffffffffffffffffffff16146109ca576040517f08c379a00000000000000000000000000000000000000000000000000000000081526004016109c190613457565b60405180910390fd5b600073ffffffffffffffffffffffffffffffffffffffff168273ffffffffffffffffffffffffffffffffffffffff161415610a3a576040517f08c379a0000000000000000000000000000000000000000000000000000000008152600401610a31906133f7565b60405180910390fd5b610a43816117d9565b610a8a600460008573ffffffffffffffffffffffffffffffffffffffff1673ffffffffffffffffffffffffffffffffffffffff168152602001908152602001600020611897565b610ad1600460008473ffffffffffffffffffffffffffffffffffffffff1673ffffffffffffffffffffffffffffffffffffffff1681526020019081526020016000206118ba565b816002600083815260200190815260200160002060006101000a81548173ffffffffffffffffffffffffffffffffffffffff021916908373ffffffffffffffffffffffffffffffffffffffff160217905550808273ffffffffffffffffffffffffffffffffffffffff168473ffffffffffffffffffffffffffffffffffffffff167fddf252ad1be2c89b69c2b068fc378daa952ba7f163c4a11628f55a4df523b3ef60405160405180910390a4505050565b610bc2828260006040519080825280601f01601f191660200182016040528015610bbc5781602001600182028038833980820191505090505b50610c39565b5050565b6000610bd183610fd9565b8210610bdc57600080fd5b600660008473ffffffffffffffffffffffffffffffffffffffff1673ffffffffffffffffffffffffffffffffffffffff1681526020019081526020016000208281548110610c2657fe5b9060005260206000200154905092915050565b505050565b6000610c486112bb565b610c87576040517f08c379a0000000000000000000000000000000000000000000000000000000008152600401610c7e90613437565b60405180910390fd5b610c9183836118d0565b6060610c9c836118f1565b905080604051610cac919061327a565b60405180910390208473ffffffffffffffffffffffffffffffffffffffff167ee705e3614976c3d5c59c0907231ec8257134a4315ad94dd897a1751428d21260405160405180910390a3600191505092915050565b610d1c838383604051806020016040528060008152506114f1565b505050565b601360009054906101000a900473ffffffffffffffffffffffffffffffffffffffff1681565b6000610d51610947565b8210610d5c57600080fd5b60088281548110610d6957fe5b90600052602060002001549050919050565b610d83612401565b601460008460ff1660ff1681526020019081526020016000206040518060600160405290816000820160009054906101000a900460ff1660ff1660ff1681526020016000820160019054906101000a900473ffffffffffffffffffffffffffffffffffffffff1673ffffffffffffffffffffffffffffffffffffffff1673ffffffffffffffffffffffffffffffffffffffff1681526020016000820160159054906101000a900460ff161515151581525050905060011515816040015115151514610e83576040517f08c379a0000000000000000000000000000000000000000000000000000000008152600401610e7a90613477565b60405180910390fd5b60405180606001604052808460ff1681526020018373ffffffffffffffffffffffffffffffffffffffff16815260200160011515815250601460008560ff1660ff16815260200190815260200160002060008201518160000160006101000a81548160ff021916908360ff16021790555060208201518160000160016101000a81548173ffffffffffffffffffffffffffffffffffffffff021916908373ffffffffffffffffffffffffffffffffffffffff16021790555060408201518160000160156101000a81548160ff0219169083151502179055509050507febd7798e7e2f133e2e975e81a521241b5528769d7a37548d355e3c493a9adbcb8383604051610f8f929190613532565b60405180910390a1505050565b60006002600083815260200190815260200160002060009054906101000a900473ffffffffffffffffffffffffffffffffffffffff169050919050565b6000600460008373ffffffffffffffffffffffffffffffffffffffff1673ffffffffffffffffffffffffffffffffffffffff168152602001908152602001600020600001549050919050565b61102d6112bb565b61106c576040517f08c379a000000000000000000000000000000000000000000000000000000000815260040161106390613437565b60405180910390fd5b600073ffffffffffffffffffffffffffffffffffffffff166000809054906101000a900473ffffffffffffffffffffffffffffffffffffffff1673ffffffffffffffffffffffffffffffffffffffff167f8be0079c531659141344cd1fd0a4f28419497f9722a3daafe3b4186f6b6457e060405160405180910390a360008060006101000a81548173ffffffffffffffffffffffffffffffffffffffff021916908373ffffffffffffffffffffffffffffffffffffffff160217905550565b600080601360009054906101000a900473ffffffffffffffffffffffffffffffffffffffff1673ffffffffffffffffffffffffffffffffffffffff1663dd129313878787876040518563ffffffff1660e01b815260040161118f94939291906132f8565b60206040518083038186803b1580156111a757600080fd5b505afa1580156111bb573d6000803e3d6000fd5b505050506040513d601f19601f820116820180604052506111df91908101906129d2565b90506001151581151514611228576040517f08c379a000000000000000000000000000000000000000000000000000000000815260040161121f90613497565b60405180910390fd5b6112328733610d7b565b61123f338860ff16610c3e565b91506001151582151514611288576040517f08c379a000000000000000000000000000000000000000000000000000000000815260040161127f906134d7565b60405180910390fd5b5095945050505050565b60008060009054906101000a900473ffffffffffffffffffffffffffffffffffffffff16905090565b60008060009054906101000a900473ffffffffffffffffffffffffffffffffffffffff1673ffffffffffffffffffffffffffffffffffffffff166112fd611a1c565b73ffffffffffffffffffffffffffffffffffffffff1614905090565b606060108054600181600116156101000203166002900480601f0160208091040260200160405190810160405280929190818152602001828054600181600116156101000203166002900480156113b15780601f10611386576101008083540402835291602001916113b1565b820191906000526020600020905b81548152906001019060200180831161139457829003601f168201915b5050505050905090565b3373ffffffffffffffffffffffffffffffffffffffff168273ffffffffffffffffffffffffffffffffffffffff1614156113f457600080fd5b80600560003373ffffffffffffffffffffffffffffffffffffffff1673ffffffffffffffffffffffffffffffffffffffff16815260200190815260200160002060008473ffffffffffffffffffffffffffffffffffffffff1673ffffffffffffffffffffffffffffffffffffffff16815260200190815260200160002060006101000a81548160ff0219169083151502179055508173ffffffffffffffffffffffffffffffffffffffff163373ffffffffffffffffffffffffffffffffffffffff167f17307eab39ab6107e8899845ad3d59bd9653f200f220920489ca2b5937696c31836040516114e5919061333f565b60405180910390a35050565b6114fc848484610954565b61150884848484611a24565b61151157600080fd5b50505050565b606060118054600181600116156101000203166002900480601f0160208091040260200160405190810160405280929190818152602001828054600181600116156101000203166002900480156115af5780601f10611584576101008083540402835291602001916115af565b820191906000526020600020905b81548152906001019060200180831161159257829003601f168201915b5050505050905090565b60606115c482611767565b6115cd57600080fd5b601260008381526020019081526020016000208054600181600116156101000203166002900480601f0160208091040260200160405190810160405280929190818152602001828054600181600116156101000203166002900480156116745780601f1061164957610100808354040283529160200191611674565b820191906000526020600020905b81548152906001019060200180831161165757829003601f168201915b50505050509050919050565b6000600560008473ffffffffffffffffffffffffffffffffffffffff1673ffffffffffffffffffffffffffffffffffffffff16815260200190815260200160002060008373ffffffffffffffffffffffffffffffffffffffff1673ffffffffffffffffffffffffffffffffffffffff16815260200190815260200160002060009054906101000a900460ff16905092915050565b61171c6112bb565b61175b576040517f08c379a000000000000000000000000000000000000000000000000000000000815260040161175290613437565b60405180910390fd5b61176481611b3b565b50565b6000806002600084815260200190815260200160002060009054906101000a900473ffffffffffffffffffffffffffffffffffffffff169050600073ffffffffffffffffffffffffffffffffffffffff168173ffffffffffffffffffffffffffffffffffffffff161415915050919050565b600073ffffffffffffffffffffffffffffffffffffffff166003600083815260200190815260200160002060009054906101000a900473ffffffffffffffffffffffffffffffffffffffff1673ffffffffffffffffffffffffffffffffffffffff16146118945760006003600083815260200190815260200160002060006101000a81548173ffffffffffffffffffffffffffffffffffffffff021916908373ffffffffffffffffffffffffffffffffffffffff1602179055505b50565b6118af60018260000154611c6990919063ffffffff16565b816000018190555050565b6001816000016000828254019250508190555050565b6118da8282611cb3565b6118e48282611e4d565b6118ed81611f14565b5050565b60606118fc82611767565b61193b576040517f08c379a000000000000000000000000000000000000000000000000000000000815260040161193290613397565b60405180910390fd5b60606119e960118054600181600116156101000203166002900480601f0160208091040260200160405190810160405280929190818152602001828054600181600116156101000203166002900480156119d65780601f106119ab576101008083540402835291602001916119d6565b820191906000526020600020905b8154815290600101906020018083116119b957829003601f168201915b50505050506119e485611f60565b61208d565b905080601260008581526020019081526020016000209080519060200190611a1292919061243d565b5080915050919050565b600033905090565b6000611a458473ffffffffffffffffffffffffffffffffffffffff166120d1565b611a525760019050611b33565b60008473ffffffffffffffffffffffffffffffffffffffff1663150b7a02338887876040518563ffffffff1660e01b8152600401611a9394939291906132ac565b602060405180830381600087803b158015611aad57600080fd5b505af1158015611ac1573d6000803e3d6000fd5b505050506040513d601f19601f82011682018060405250611ae59190810190612af7565b905063150b7a0260e01b7bffffffffffffffffffffffffffffffffffffffffffffffffffffffff1916817bffffffffffffffffffffffffffffffffffffffffffffffffffffffff1916149150505b949350505050565b600073ffffffffffffffffffffffffffffffffffffffff168173ffffffffffffffffffffffffffffffffffffffff161415611bab576040517f08c379a0000000000000000000000000000000000000000000000000000000008152600401611ba2906133b7565b60405180910390fd5b8073ffffffffffffffffffffffffffffffffffffffff166000809054906101000a900473ffffffffffffffffffffffffffffffffffffffff1673ffffffffffffffffffffffffffffffffffffffff167f8be0079c531659141344cd1fd0a4f28419497f9722a3daafe3b4186f6b6457e060405160405180910390a3806000806101000a81548173ffffffffffffffffffffffffffffffffffffffff021916908373ffffffffffffffffffffffffffffffffffffffff16021790555050565b6000611cab83836040518060400160405280601e81526020017f536166654d6174683a207375627472616374696f6e206f766572666c6f7700008152506120e4565b905092915050565b8173ffffffffffffffffffffffffffffffffffffffff166002600083815260200190815260200160002060009054906101000a900473ffffffffffffffffffffffffffffffffffffffff1673ffffffffffffffffffffffffffffffffffffffff161415611d55576040517f08c379a0000000000000000000000000000000000000000000000000000000008152600401611d4c90613417565b60405180910390fd5b816002600083815260200190815260200160002060006101000a81548173ffffffffffffffffffffffffffffffffffffffff021916908373ffffffffffffffffffffffffffffffffffffffff160217905550611dee600460008473ffffffffffffffffffffffffffffffffffffffff1673ffffffffffffffffffffffffffffffffffffffff1681526020019081526020016000206118ba565b808273ffffffffffffffffffffffffffffffffffffffff163373ffffffffffffffffffffffffffffffffffffffff167fddf252ad1be2c89b69c2b068fc378daa952ba7f163c4a11628f55a4df523b3ef60405160405180910390a45050565b600660008373ffffffffffffffffffffffffffffffffffffffff1673ffffffffffffffffffffffffffffffffffffffff168152602001908152602001600020805490506007600083815260200190815260200160002081905550600660008373ffffffffffffffffffffffffffffffffffffffff1673ffffffffffffffffffffffffffffffffffffffff1681526020019081526020016000208190806001815401808255809150509060018203906000526020600020016000909192909190915055505050565b6008805490506009600083815260200190815260200160002081905550600881908060018154018082558091505090600182039060005260206000200160009091929091909150555050565b60606000821415611fa8576040518060400160405280600181526020017f30000000000000000000000000000000000000000000000000000000000000008152509050612088565b600082905060005b60008214611fd2578080600101915050600a8281611fca57fe5b049150611fb0565b6060816040519080825280601f01601f1916602001820160405280156120075781602001600182028038833980820191505090505b50905060006001830390505b6000861461208057600a868161202557fe5b0660300160f81b8282806001900393508151811061203f57fe5b60200101907effffffffffffffffffffffffffffffffffffffffffffffffffffffffffffff1916908160001a905350600a868161207857fe5b049550612013565b819450505050505b919050565b60606120c9838360405180602001604052806000815250604051806020016040528060008152506040518060200160405280600081525061213f565b905092915050565b600080823b905060008111915050919050565b600083831115829061212c576040517f08c379a00000000000000000000000000000000000000000000000000000000081526004016121239190613375565b60405180910390fd5b5060008385039050809150509392505050565b6060808690506060869050606086905060608690506060869050606081518351855187518951010101016040519080825280601f01601f19166020018201604052801561219b5781602001600182028038833980820191505090505b509050606081905060008090506000809050600090505b8851811015612220578881815181106121c757fe5b602001015160f81c60f81b8383806001019450815181106121e457fe5b60200101907effffffffffffffffffffffffffffffffffffffffffffffffffffffffffffff1916908160001a90535080806001019150506121b2565b600090505b87518110156122935787818151811061223a57fe5b602001015160f81c60f81b83838060010194508151811061225757fe5b60200101907effffffffffffffffffffffffffffffffffffffffffffffffffffffffffffff1916908160001a9053508080600101915050612225565b600090505b8651811015612306578681815181106122ad57fe5b602001015160f81c60f81b8383806001019450815181106122ca57fe5b60200101907effffffffffffffffffffffffffffffffffffffffffffffffffffffffffffff1916908160001a9053508080600101915050612298565b600090505b85518110156123795785818151811061232057fe5b602001015160f81c60f81b83838060010194508151811061233d57fe5b60200101907effffffffffffffffffffffffffffffffffffffffffffffffffffffffffffff1916908160001a905350808060010191505061230b565b600090505b84518110156123ec5784818151811061239357fe5b602001015160f81c60f81b8383806001019450815181106123b057fe5b60200101907effffffffffffffffffffffffffffffffffffffffffffffffffffffffffffff1916908160001a905350808060010191505061237e565b82995050505050505050505095945050505050565b6040518060600160405280600060ff168152602001600073ffffffffffffffffffffffffffffffffffffffff1681526020016000151581525090565b828054600181600116156101000203166002900490600052602060002090601f016020900481019282601f1061247e57805160ff19168380011785556124ac565b828001600101855582156124ac579182015b828111156124ab578251825591602001919060010190612490565b5b5090506124b991906124bd565b5090565b6124df91905b808211156124db5760008160009055506001016124c3565b5090565b90565b6000813590506124f181613897565b92915050565b600082601f83011261250857600080fd5b600261251b61251682613588565b61355b565b9150818385604084028201111561253157600080fd5b60005b83811015612561578161254788826125df565b845260208401935060408301925050600181019050612534565b5050505092915050565b600082601f83011261257c57600080fd5b600161258f61258a826135aa565b61355b565b915081838560208402820111156125a557600080fd5b60005b838110156125d557816125bb88826127d8565b8452602084019350602083019250506001810190506125a8565b5050505092915050565b600082601f8301126125f057600080fd5b60026126036125fe826135cc565b61355b565b9150818385602084028201111561261957600080fd5b60005b83811015612649578161262f88826127d8565b84526020840193506020830192505060018101905061261c565b5050505092915050565b600082601f83011261266457600080fd5b6002612677612672826135ee565b61355b565b9150818385602084028201111561268d57600080fd5b60005b838110156126bd57816126a388826127d8565b845260208401935060208301925050600181019050612690565b5050505092915050565b6000813590506126d6816138ae565b92915050565b6000815190506126eb816138ae565b92915050565b600081359050612700816138c5565b92915050565b600081359050612715816138dc565b92915050565b60008151905061272a816138dc565b92915050565b600082601f83011261274157600080fd5b813561275461274f82613610565b61355b565b9150808252602083016020830185838301111561277057600080fd5b61277b838284613844565b50505092915050565b600082601f83011261279557600080fd5b81356127a86127a38261363c565b61355b565b915080825260208301602083018583830111156127c457600080fd5b6127cf838284613844565b50505092915050565b6000813590506127e7816138f3565b92915050565b6000813590506127fc8161390a565b92915050565b60006020828403121561281457600080fd5b6000612822848285016124e2565b91505092915050565b6000806040838503121561283e57600080fd5b600061284c858286016124e2565b925050602061285d858286016124e2565b9150509250929050565b60008060006060848603121561287c57600080fd5b600061288a868287016124e2565b935050602061289b868287016124e2565b92505060406128ac868287016127d8565b9150509250925092565b600080600080608085870312156128cc57600080fd5b60006128da878288016124e2565b94505060206128eb878288016124e2565b93505060406128fc878288016127d8565b925050606085013567ffffffffffffffff81111561291957600080fd5b61292587828801612730565b91505092959194509250565b6000806040838503121561294457600080fd5b6000612952858286016124e2565b9250506020612963858286016126c7565b9150509250929050565b6000806040838503121561298057600080fd5b600061298e858286016124e2565b925050602061299f858286016127d8565b9150509250929050565b6000602082840312156129bb57600080fd5b60006129c9848285016126c7565b91505092915050565b6000602082840312156129e457600080fd5b60006129f2848285016126dc565b91505092915050565b60008060408385031215612a0e57600080fd5b6000612a1c858286016126f1565b925050602083013567ffffffffffffffff811115612a3957600080fd5b612a4585828601612784565b9150509250929050565b600080600060608486031215612a6457600080fd5b6000612a72868287016126f1565b935050602084013567ffffffffffffffff811115612a8f57600080fd5b612a9b86828701612784565b925050604084013567ffffffffffffffff811115612ab857600080fd5b612ac486828701612730565b9150509250925092565b600060208284031215612ae057600080fd5b6000612aee84828501612706565b91505092915050565b600060208284031215612b0957600080fd5b6000612b178482850161271b565b91505092915050565b600060208284031215612b3257600080fd5b6000612b40848285016127d8565b91505092915050565b60008060408385031215612b5c57600080fd5b6000612b6a858286016127ed565b9250506020612b7b858286016124e2565b9150509250929050565b60008060008060006101408688031215612b9e57600080fd5b6000612bac888289016127ed565b9550506020612bbd88828901612653565b9450506060612bce888289016124f7565b93505060e0612bdf88828901612653565b925050610120612bf18882890161256b565b9150509295509295909350565b6000612c0a8383612d51565b60408301905092915050565b6000612c22838361324d565b60208301905092915050565b612c37816137ea565b82525050565b612c468161375f565b82525050565b612c5581613690565b612c5f8184613706565b9250612c6a82613668565b8060005b83811015612c9b578151612c828782612bfe565b9650612c8d836136d2565b925050600181019050612c6e565b505050505050565b612cac8161369b565b612cb68184613711565b9250612cc182613672565b8060005b83811015612cf2578151612cd98782612c16565b9650612ce4836136df565b925050600181019050612cc5565b505050505050565b612d03816136b1565b612d0d8184613727565b9250612d1882613686565b8060005b83811015612d49578151612d308782612c16565b9650612d3b836136f9565b925050600181019050612d1c565b505050505050565b612d5a816136a6565b612d64818461371c565b9250612d6f8261367c565b8060005b83811015612da0578151612d878782612c16565b9650612d92836136ec565b925050600181019050612d73565b505050505050565b612db181613771565b82525050565b6000612dc2826136bc565b612dcc8185613732565b9350612ddc818560208601613853565b612de581613886565b840191505092915050565b612df9816137fc565b82525050565b6000612e0a826136c7565b612e148185613743565b9350612e24818560208601613853565b612e2d81613886565b840191505092915050565b6000612e43826136c7565b612e4d8185613754565b9350612e5d818560208601613853565b80840191505092915050565b6000612e76602083613743565b91507f546f6b656e20616c72656164792065786973747320696e20706c6174666f726d6000830152602082019050919050565b6000612eb6602683613743565b91507f4f776e61626c653a206e6577206f776e657220697320746865207a65726f206160008301527f64647265737300000000000000000000000000000000000000000000000000006020830152604082019050919050565b6000612f1c603983613743565b91507f4d73672e73656e646572206d757374206265206f776e6572206f72206973417060008301527f70726f766564466f72416c6c206d7573742062652074727565000000000000006020830152604082019050919050565b6000612f82602483613743565b91507f4552433732313a207472616e7366657220746f20746865207a65726f2061646460008301527f72657373000000000000000000000000000000000000000000000000000000006020830152604082019050919050565b6000612fe8601e83613743565b91507f546f6b656e20666f72206f776e657220616c72656164792065786973747300006000830152602082019050919050565b6000613028602083613743565b91507f4f776e61626c653a2063616c6c6572206973206e6f7420746865206f776e65726000830152602082019050919050565b6000613068602983613743565b91507f4552433732313a207472616e73666572206f6620746f6b656e2074686174206960008301527f73206e6f74206f776e00000000000000000000000000000000000000000000006020830152604082019050919050565b60006130ce601783613743565b91507f536f6c7574696f6e20616c7265616479206578697374730000000000000000006000830152602082019050919050565b600061310e602c83613743565b91507f43616e6e6f74206d696e742061206e657720746f6b656e2d205665726966696360008301527f6174696f6e206661696c656400000000000000000000000000000000000000006020830152604082019050919050565b6000613174602183613743565b91507f4552433732313a20617070726f76616c20746f2063757272656e74206f776e6560008301527f72000000000000000000000000000000000000000000000000000000000000006020830152604082019050919050565b60006131da601383613743565b91507f4572726f72206d696e74696e6720746f6b656e000000000000000000000000006000830152602082019050919050565b600061321a601483613743565b91507f546f6b656e20646f6573206e6f742065786974730000000000000000000000006000830152602082019050919050565b613256816137d3565b82525050565b613265816137d3565b82525050565b613274816137dd565b82525050565b60006132868284612e38565b915081905092915050565b60006020820190506132a66000830184612c3d565b92915050565b60006080820190506132c16000830187612c2e565b6132ce6020830186612c3d565b6132db604083018561325c565b81810360608301526132ed8184612db7565b905095945050505050565b60006101208201905061330e6000830187612cfa565b61331b6040830186612c4c565b61332860c0830185612cfa565b613336610100830184612ca3565b95945050505050565b60006020820190506133546000830184612da8565b92915050565b600060208201905061336f6000830184612df0565b92915050565b6000602082019050818103600083015261338f8184612dff565b905092915050565b600060208201905081810360008301526133b081612e69565b9050919050565b600060208201905081810360008301526133d081612ea9565b9050919050565b600060208201905081810360008301526133f081612f0f565b9050919050565b6000602082019050818103600083015261341081612f75565b9050919050565b6000602082019050818103600083015261343081612fdb565b9050919050565b600060208201905081810360008301526134508161301b565b9050919050565b600060208201905081810360008301526134708161305b565b9050919050565b60006020820190508181036000830152613490816130c1565b9050919050565b600060208201905081810360008301526134b081613101565b9050919050565b600060208201905081810360008301526134d081613167565b9050919050565b600060208201905081810360008301526134f0816131cd565b9050919050565b600060208201905081810360008301526135108161320d565b9050919050565b600060208201905061352c600083018461325c565b92915050565b6000604082019050613547600083018561326b565b6135546020830184612c3d565b9392505050565b6000604051905081810181811067ffffffffffffffff8211171561357e57600080fd5b8060405250919050565b600067ffffffffffffffff82111561359f57600080fd5b602082029050919050565b600067ffffffffffffffff8211156135c157600080fd5b602082029050919050565b600067ffffffffffffffff8211156135e357600080fd5b602082029050919050565b600067ffffffffffffffff82111561360557600080fd5b602082029050919050565b600067ffffffffffffffff82111561362757600080fd5b601f19601f8301169050602081019050919050565b600067ffffffffffffffff82111561365357600080fd5b601f19601f8301169050602081019050919050565b6000819050919050565b6000819050919050565b6000819050919050565b6000819050919050565b600060029050919050565b600060019050919050565b600060029050919050565b600060029050919050565b600081519050919050565b600081519050919050565b6000602082019050919050565b6000602082019050919050565b6000602082019050919050565b6000602082019050919050565b600081905092915050565b600081905092915050565b600081905092915050565b600081905092915050565b600082825260208201905092915050565b600082825260208201905092915050565b600081905092915050565b600061376a826137b3565b9050919050565b60008115159050919050565b6000819050919050565b60007fffffffff0000000000000000000000000000000000000000000000000000000082169050919050565b600073ffffffffffffffffffffffffffffffffffffffff82169050919050565b6000819050919050565b600060ff82169050919050565b60006137f582613820565b9050919050565b60006138078261380e565b9050919050565b6000613819826137b3565b9050919050565b600061382b82613832565b9050919050565b600061383d826137b3565b9050919050565b82818337600083830152505050565b60005b83811015613871578082015181840152602081019050613856565b83811115613880576000848401525b50505050565b6000601f19601f8301169050919050565b6138a08161375f565b81146138ab57600080fd5b50565b6138b781613771565b81146138c257600080fd5b50565b6138ce8161377d565b81146138d957600080fd5b50565b6138e581613787565b81146138f057600080fd5b50565b6138fc816137d3565b811461390757600080fd5b50565b613913816137dd565b811461391e57600080fd5b5056fea365627a7a72315820e6297e186cb7854f99ca6f5b9b11214c90aab945e6e1f8d7a5b6341edd2a05366c6578706572696d656e74616cf564736f6c6343000510004068747470733a2f2f73332d75732d776573742d322e616d617a6f6e6177732e636f6d2f756461636974792d626c6f636b636861696e2f63617073746f6e652f",
  "source": "pragma solidity >=0.4.21 <0.6.0;\npragma experimental ABIEncoderV2;\nimport './SquareVerifier.sol';\nimport './ERC721Mintable.sol';\n\n// TODO define another contract named SolnSquareVerifier that inherits from your ERC721Mintable class\ncontract SolnSquareVerifier is ERC721MintableComplete {\n  // TODO define a solutions struct that can hold an index & an address\n  struct Solution {\n    uint8 _index;\n    address _address;\n    bool exists;\n  }\n  SquareVerifier public squareVerifier;\n\n  // TODO define an array of the above struct\n  // Solution[] solutions;\n\n  // TODO define a mapping to store unique solutions submitted\n  mapping(uint8 => Solution) solutions; \n\n  // TODO Create an event to emit when a solution is added\n  event SolutionAdded(uint8 _index, address _address);\n\n  constructor(address verifierAddress) public {\n    squareVerifier = SquareVerifier(verifierAddress);\n  }\n\n  // TODO Create a function to add the solutions to the array and emit the event\n  function addSolution(uint8 _index, address _address) public {\n    Solution memory sol = solutions[_index];\n    require(!sol.exists == true, 'Solution already exists');\n    solutions[_index] = Solution(_index, _address, true);\n    emit SolutionAdded(_index, _address);\n  } \n\n  function mintNtf(\n    uint8 _index,\n    uint[2] memory a,\n    uint[2][2] memory b,\n    uint[2] memory c, uint[1] memory input\n  ) public returns(bool result) {\n      bool isVerified = squareVerifier.verifyTx(a, b, c, input);\n      require(isVerified == true, \"Cannot mint a new token- Verification failed\");\n      addSolution(_index, msg.sender);  \n      result = mint(msg.sender, _index);\n      require(result == true, 'Error minting token');\n  }\n}\n\n// TODO Create a function to mint new NFT only after the solution has been verified\n//  - make sure the solution is unique (has not been used before)\n//  - make sure you handle metadata as well as tokenSuplly\n\n  \n\n\n\n\n\n\n\n\n\n\n\n\n\n\n\n\n\n\n\n\n\n\n\n\n\n\n",
  "sourcePath": "/Users/mymac/Documents/Projects/blockchain/token/Blockchain-Capstone/eth-contracts/contracts/SolnSquareVerifier.sol",
  "compiler": {
    "name": "solc",
    "version": "0.5.16+commit.9c3226ce.Emscripten.clang"
  },
  "schemaVersion": "3.3.4",
  "updatedAt": "2021-05-17T19:54:55.468Z",
  "networkType": "ethereum",
  "devdoc": {
    "methods": {
      "isApprovedForAll(address,address)": {
        "details": "Tells whether an operator is approved by a given owner",
        "params": {
          "operator": "operator address which you want to query the approval of",
          "owner": "owner address which you want to query the approval of"
        },
        "return": "bool whether the given operator is approved by the given owner"
      },
      "isOwner()": {
        "details": "Returns true if the caller is the current owner."
      },
      "owner()": {
        "details": "Returns the address of the current owner."
      },
      "renounceOwnership()": {
        "details": "Leaves the contract without owner. It will not be possible to call `onlyOwner` functions anymore. Can only be called by the current owner.     * NOTE: Renouncing ownership will leave the contract without an owner, thereby removing any functionality that is only available to the owner."
      },
      "setApprovalForAll(address,bool)": {
        "details": "Sets or unsets the approval of a given operator An operator is allowed to transfer all tokens of the sender on their behalf",
        "params": {
          "approved": "representing the status of the approval to be set",
          "to": "operator address to set the approval"
        }
      },
      "supportsInterface(bytes4)": {
        "details": "implement supportsInterface(bytes4) using a lookup table"
      },
      "tokenByIndex(uint256)": {
        "details": "Gets the token ID at a given index of all the tokens in this contract Reverts if the index is greater or equal to the total number of tokens",
        "params": {
          "index": "uint256 representing the index to be accessed of the tokens list"
        },
        "return": "uint256 token ID at the given index of the tokens list"
      },
      "tokenOfOwnerByIndex(address,uint256)": {
        "details": "Gets the token ID at a given index of the tokens list of the requested owner",
        "params": {
          "index": "uint256 representing the index to be accessed of the requested tokens list",
          "owner": "address owning the tokens list to be accessed"
        },
        "return": "uint256 token ID at the given index of the tokens list owned by the requested address"
      },
      "totalSupply()": {
        "details": "Gets the total amount of tokens stored by the contract",
        "return": "uint256 representing the total amount of tokens"
      },
      "transferOwnership(address)": {
        "details": "Transfers ownership of the contract to a new account (`newOwner`). Can only be called by the current owner."
      }
    }
  },
  "userdoc": {
    "methods": {}
  }
}